:020000040800F2
:1000000050070020C1010008571E0008011B00080E
:10001000551E0008A90200089525000800000000F0
:100020000000000000000000000000007B1E00082F
:100030007D03000800000000791E00087D1E0008F6
:10004000DB010008DB010008DB010008DB01000820
:10005000DB010008DB010008DB010008DB01000810
:10006000DB010008DB010008DB010008DB01000800
:10007000C5020008DB010008D1020008DB0100080E
:10008000DB010008DB010008DB010008B902000801
:10009000AD020008DB010008DB010008DB010008FD
:1000A000DB010008DB010008DB010008DB010008C0
:1000B000DB010008DB010008DB010008DB010008B0
:1000C000DB010008DB010008DB010008DB010008A0
:1000D000DB0100087D250008DB01000889250008F8
:1000E000DB010008DB010008DB010008DB01000880
:1000F000DB010008DB010008DB010008DB01000870
:10010000DB010008DB010008DB010008DB0100085F
:10011000DB010008DB0100087D1F0008DB0100088F
:10012000DB010008DD020008E9020008DB0100082D
:10013000DB010008DB010008DB010008DB0100082F
:10014000DB010008DB010008DB010008DB0100081F
:10015000DB010008F5020008DB010008DB010008F4
:10016000DB010008DB010008DB010008DB010008FF
:10017000DB010008DB010008DB01000800000000D3
:10018000DB010008DB010008DB010008DB010008DF
:10019000DB010008DB010008DB010008DB010008CF
:1001A0000000000000000000DB010008DFF80CD0B8
:1001B00000F068F800480047B72500085007002005
:1001C0000648804706480047FEE7FEE7FEE7FEE7F1
:1001D000FEE7FEE7FEE7FEE7FEE7FEE7291F000871
:1001E000AD0100082DE9F05F0546002092469B46D0
:1001F00088460646814640241BE02846414647463D
:10020000224600F02FF853465A46C01A914110D3A7
:1002100011461846224600F016F82D1A67EB010821
:100220004F4622460120002100F00DF817EB00098F
:100230004E41201EA4F10104DFDC484631462A4627
:100240004346BDE8F09F202A04DB203A00FA02F181
:10025000002070479140C2F1200320FA03F31943B4
:1002600090407047202A04DB203A21FA02F0002156
:10027000704721FA02F3D040C2F1200291400843B6
:1002800019467047064C074D06E0E06840F0010350
:1002900094E8070098471034AC42F6D3FFF78AFF82
:1002A000FC2500081C260008FEE70000014800F0BD
:1002B00067B8000010000020014800F061B800009D
:1002C00010000020014800F03BBA0000940100201B
:1002D000014800F035BA0000F4010020014800F0A8
:1002E0002FBA000054020020014800F029BA000093
:1002F00034010020014800F023BA0000B4020020BD
:1003000001681823CAB2103AB2FBF3F2054B6FF33F
:100310000901032A9B5CC36500D9091D8165084654
:1003200070470000DC25000810B5014600208B69ED
:100330008A6A4FF0C07453B1B3F5005F15D072B143
:10034000012A0CD0022A0AD0032A09D104E01AB1EA
:10035000012A06D0022A03D1C96AC90100D50120A9
:1003600010BDC96AA142FAD010BD002AF7D0012AF7
:10037000F2D0022AF3D0032AF3D010BD70477047A1
:100380002DE9F05F0546006800244669D0F8049026
:100390008768D0F80CB0D0F810A0D0F81880F1071A
:1003A00048D0F90714D001218160B80703D5284649
:1003B00000F0AEF90CE0780702D54FF4006407E0D6
:1003C000380702D54FF4805402E0284600F09FF928
:1003D000F80516D529684FF480708860B80503D5F4
:1003E000284600F097F90CE0780502D544F4005453
:1003F00007E0380502D544F4804402E0284600F0C6
:1004000088F9F80316D529684FF480308860B8035E
:1004100003D5284600F080F90CE0780302D544F4B7
:10042000004407E0380302D544F4803402E0284653
:1004300000F071F9300707D55FEACB6004D5296871
:10044000102044F40074C86070074FF0080707D507
:100450005FEA0B7004D52868C760284600F052F99F
:10046000B00706D52868C068800702D0284600F08B
:100470004AF9700607D55FEACA6004D529681020DA
:1004800044F480640861B00607D55FEA0A7004D5B9
:1004900028680761284600F037F9F00606D5286875
:1004A0000069800702D0284600F02FF9B00308D574
:1004B0005FEAC96005D5296810204860284600F029
:1004C00025F9F00307D55FEA097004D5286847606D
:1004D000284600F022F9300446D55FEA497040D53D
:1004E000F00504D55FEAC87001D044F00104B005FE
:1004F00004D55FEA887001D544F00204700504D584
:100500005FEA487001D544F00404300529D518F09D
:10051000700F26D008F07000402815D006DC102897
:1005200009D020280AD0302816D10AE050280ED051
:10053000602811D10EE044F008040DE044F01004EE
:100540000AE044F0200407E044F0400404E044F0F2
:10055000800401E044F480742868816921F070010E
:100560008161296804204860002C05D0686A204316
:1005700068622846FFF703FFBDE8F09F70B50400EE
:1005800003D094F8200010B104E0012070BD204693
:1005900000F082F82068016821F00201016000F09B
:1005A000F5FA0546052604E000F0F0FA401B0A289B
:1005B00011D8206840688007F6D42068016841F0AF
:1005C0000101016000F0E2FA05460BE000F0DEFAFE
:1005D000401B0A2806D9606A40F40030606284F843
:1005E0002060D2E720684068C007EFD0207E012855
:1005F000206801683DD021F080010160607E012803
:100600002068016838D021F040010160A07E0128F7
:100610002068016833D021F020010160E07E0128CC
:10062000206801682ED041F010010160207F012870
:100630002068016829D021F008010160607F01284D
:100640002068016824D021F004010160D4E902018E
:100650000843D4E90412114308436168491E084362
:100660002168C86100206062012084F82000002019
:1006700070BD41F08001C0E741F04001C5E741F0A5
:100680002001CAE721F01001CFE741F00801D4E7CB
:1006900041F00401D9E7000000B50068164987B0B1
:1006A000884227D115480021026842F0007202609A
:1006B000006800F0007005904FF440700090022038
:1006C000CDE90101032003900920049069460C48FC
:1006D00000F070F900221146132000F007FB1320F0
:1006E00000F0F8FA00221146142000F0FFFA14205E
:1006F00000F0F0FA07B000BD00640040403802404E
:100700000004024070477047704770477047704759
:1007100070477047704770477047704790F83510C2
:10072000022903D08021416501207047052180F80E
:1007300035100068016821F0010101600020704758
:100740002DE9F84304464FF00009CDF800906348C6
:100750004FF41651A56D0068B0FBF1F72E6894F8C0
:100760005C10082000FA01F131420FD021680A68BC
:1007700052070BD50A6822F004020A6094F85C1054
:100780008840A860606D40F00100606594F85C10DE
:100790004FF0010808FA01F0304208D02168496999
:1007A000090604D5A860606D40F00200606594F809
:1007B0005C1004208840304208D02168096889070D
:1007C00004D5A860606D40F00400606594F85C108A
:1007D00010208840304218D021680968090714D5D4
:1007E000A86020680168490304D50068000308D5A3
:1007F000A16C07E00168C90503D4016821F0080174
:100800000160216C09B12046884794F85C102020D3
:100810008840304231D021680968C9062DD5A860CA
:1008200094F8350005282068016806D0490347D5AB
:10083000006800031DD4616C1CE021F0160101600A
:100840002068416921F080014161206C08B9A06CE9
:1008500020B12068016821F00801016094F85C1063
:100860003F208840A86084F8349084F83580216D5A
:100870001FE0E16B09B120468847606D00282BD04E
:10088000606DC00714D0052084F835002068016829
:1008900021F0010101600098401C0090B84203D88B
:1008A00020680068C007F6D184F8349084F8358059
:1008B000E16C002910D001B02046BDE8F0430847A4
:1008C0000168C905D5D4016821F01001016084F8E0
:1008D000349084F83580CCE7BDE8F8830C00002024
:1008E0002DE9F041044600F051F906465CB10025BF
:1008F00084F83450022084F835002068016821F023
:10090000010101600DE00120BDE8F08100F03EF939
:10091000801B052805D920206065032084F8350058
:10092000F2E720680068C007F0D12268116820480B
:100930000140D4E901031843D4E903363343184393
:1009400063691843A3691843E3691843236A18438A
:100950000843616A042903D1D4E90B1319430843FE
:10096000106020684069666A20F0070130460E4337
:10097000012704280CD1A06A0643E06A40B1204652
:10098000FFF7D2FC20B14020606584F83570BAE7EB
:10099000206846612046FFF7B3FC94F85C203F21B5
:1009A00091408160656584F835700020ACE70000F7
:1009B0003F8010F02DE9F84FDFF890B100224FF0A2
:1009C00001084FF0030A4FF00F090BF1040E00BFAE
:1009D0000B6808FA02F42340A3426ED14D68022D41
:1009E00001D0122D0ED1D50800EB850CDCF820507B
:1009F0005607F70E09FA07F6B5430E69BE402E43B7
:100A0000CCF82060066855000F790AFA05FC07F05B
:100A1000030726EA0C06AF40374307604E68012EF5
:100A200005D0022E03D0112E01D0122E0ED18768D0
:100A3000CE6827EA0C07AE403E4386604668A64370
:100A40000C79C4F30014944034434460C4688E6845
:100A500024EA0C04AE402643C6604C68E4006FD51F
:100A60003B4C256845F480452560246822F0030549
:100A700004F480440094374C2E19D6F808489507A2
:100A80002F0F09FA07F5AC43334DA84201D10025D9
:100A90002EE0324DA84201D1012529E0304DA84277
:100AA00001D1022524E02F4DA84201D103251FE0EA
:100AB0002D4DA84202D104251AE041E02B4DA84259
:100AC00001D1052514E02A4DA84201D106250FE0E9
:100AD000284DA84201D107250AE0274DA84201D19F
:100AE000082505E0254DA84201D1092500E00A2589
:100AF000BD402543C6F80858DBF800405D464E6807
:100B00009C43F60300D51C432C60DEF8004075467C
:100B10004E689C43B60300D51C432C600B4D083532
:100B20002C684E689C43F60200D51C432C60074D90
:100B30000C352C684E689C43B60200D51C432C60D3
:100B4000521C102AFFF444AFBDE8F88F003C01406E
:100B500044380240003001400000024000040240DE
:100B600000080240000C0240001002400014024045
:100B700000180240001C02400020024000240240F5
:100B80000AB1816170470904FBE7000001488068F1
:100B9000704700000000002002488168027811447C
:100BA00081607047000000200B4810B5016841F4D7
:100BB00000710160016841F480610160016841F4E5
:100BC00080710160032000F0B1F8002000F006F809
:100BD00000F03EF8002010BD003C024010B5014678
:100BE00088B00022362000F081F8362000F072F83C
:100BF00013480024016841F010010160006805A954
:100C000000F010000690684600F072F900F096F9C6
:100C10000C494000B0FBF1F10C480B4A491E026040
:100C200040F2E732C0E90324C0E9011400F0E2FB1E
:100C300010B1012008B010BD044800F0F7FBF9E73F
:100C40004038024040420F000010004014030020D2
:100C50001F4808B5016841F480410160006800F454
:100C6000804000901A48001F016841F080510160E7
:100C7000006800F080500090032000F057F8002238
:100C800011466FF00B0000F031F8002211466FF0B2
:100C90000A0000F02BF8002211466FF0090000F066
:100CA00025F800221146501F00F020F800221146BE
:100CB000101F00F01BF800221146901E00F016F8DD
:100CC0000022BDE808401146501E00F00FB8000099
:100CD0004438024000F01F02012191404009800089
:100CE00000F1E020C0F8001170470000F0B40E4B96
:100CF0001B680C46C3F30223C3F10705042D00D97A
:100D00000425191D072901D2002300E0DB1E01265E
:100D100006FA05F1491E214099409E40761E164074
:100D20003143F0BC01F098B80CED00E0064900F04A
:100D3000070208684FF6FF03184040EA0220034A02
:100D400010430860704700000CED00E00000FA0559
:100D50002DE9F8431748016841F0805101600068AF
:100D6000154F00F08050012600903E64FFF70EFF03
:100D700005464FF47A78114C05E000BFFFF706FFF7
:100D8000401B40450DD86068C003F7D57E64FFF76F
:100D9000FDFE0546464607E0FFF7F8FE401BB04261
:100DA00002D90320BDE8F88360688003F4D50020F1
:100DB000F8E700004038024000000E42007000409A
:100DC0002DE9F0470E46050065D0DFF81481D8F80C
:100DD0000000F7B200F00F00B04207D288F80070B0
:100DE000D8F8000000F00F00B04254D128683D4C04
:100DF000810712D5400703D5206840F4E0502060F9
:100E00002878000703D5206840F4604020602068FF
:100E1000A96820F0F000084320602878C0072DD092
:100E2000304968680839012812D0022813D00328F5
:100E300011D00968890700292DDA216821F0030102
:100E400001432160FFF7A2FE814641F2883A0EE09D
:100E500009688903EFE709688901ECE7FFF796FE67
:100E6000A0EB0901514502D90320BDE8F0872068B5
:100E7000696800F00C00B0EB810FEFD1D8F80010DA
:100E8000404601F00F01B14207D90770006800F039
:100E90000F00B04201D00120E7E72878400705D5D0
:100EA0002068E96820F4E0500843206028780007B3
:100EB00006D52068296920F4604040EAC10020601E
:100EC00000F05CF82168084AC1F30311515CC84086
:100ED000064908600020FFF781FE0020C5E70000FA
:100EE000003C024008380240E42500080C000020C5
:100EF0000F2202600C4A136803F003034360136877
:100F000003F0F0038360136803F4E053C3601268D6
:100F10004FF4E05303EAD20202610448006800F093
:100F20000F0008607047000008380240003C024093
:100F300001480068704700000C0000200448054983
:100F400000680968044AC1F38221515CC8407047B7
:100F50000C00002008380240F42500080448054928
:100F600000680968044AC1F34231515CC8407047C7
:100F70000C00002008380240F4250008154810B580
:100F8000006810F00C02144813D01449042A0FD042
:100F9000082A0ED10F4C241F2268236802F03F025A
:100FA0005B0207D52068C0F38810A0FB010106E0B2
:100FB000084610BD2168C1F38811A1FB0001002380
:100FC000FFF710F92168C1F30141491C4900B0FB4A
:100FD000F1F010BD083802400024F400001BB700F7
:100FE0002DE9F84F050076D02878DFF8F8B2BE4C2E
:100FF000C00749D0DBF800105846C1F38101012930
:1010000008D00068C0F3810002280AD1201D0068C2
:10101000400206D52068800336D568680028E2D0F3
:1010200032E06868B0F5803F10D0B0F5A02F20689E
:1010300010D020F480302060206820F480202060D0
:101040006868A0B1FFF7A2FD06460CE0206840F4F6
:101050008030F4E740F480202060F7E7FFF796FD4A
:10106000801B642873D820688003F7D50CE0FFF755
:101070008DFD064605E000BFFFF788FD801B642854
:10108000F0D820688003F7D42878DFF860828007E2
:101090004FF000093ED5DBF80010584611F00C0F58
:1010A00009D00068C0F3810002280BD18D48001FD1
:1010B0000068400206D42068800715D5E86801283A
:1010C00009D111E0E868B8B10120C8F80000FFF7C5
:1010D0005DFD064605E002E1FFF758FD801B022892
:1010E000C0D820688007F7D52068296920F0F8006B
:1010F00040EAC10020600DE0C8F80090FFF746FD0F
:10110000064604E0FFF742FD801B02281FD8206836
:101110008007F7D42878000722D5724E7448696991
:101120006C3671B101210160FFF730FD074604E024
:10113000FFF72CFDC01B022809D830688007F7D5BF
:101140000EE0C0F80090FFF721FD074605E083E0C0
:10115000FFF71CFDC01B02287ED830688007F7D43B
:101160002878400768D5DFF87CA100270AF1380A03
:10117000DAF80000C0000BD4DAF8001041F080511A
:10118000CAF80010DAF80000012700F08050009043
:10119000584E3068C00510D4306840F4807030601C
:1011A000FFF7F4FC009005E0FFF7F0FC0099401A0F
:1011B000022851D83068C005F6D54A4EA86868366E
:1011C00001280FD00528306810D020F001003060D1
:1011D000306820F004003060A868B8B1FFF7D6FC92
:1011E00000900FE0306840F00100F4E740F00400A8
:1011F0003060F7E7FFF7CAFC0099411A41F28830E6
:10120000814264D830688007F4D50EE0FFF7BEFC59
:10121000009007E0FFF7BAFC0099411A41F28830CC
:10122000814254D830688007F4D42FB1DAF8001026
:1012300021F08051CAF80010A869C0B3DBF8001093
:10124000C1F3810102294AD00228484607D0C8F8D4
:101250006000FFF79BFC00E039E005463AE04746B6
:10126000C8F86000FFF792FC064604E0FFF78EFC2A
:10127000801B02282BD820688001F7D4D5E907010C
:101280000843A96A1C4A490802EB01416A6A41EA1B
:101290008211084395F82C1040EA01611148001FA3
:1012A000016001203866FFF771FC054605E014E097
:1012B000FFF76CFC401B022809D820688001F7D595
:1012C0000BE000BFFFF762FC401B022802D903209D
:1012D000BDE8F88F20688001F4D40020F8E70120F1
:1012E000F6E700000838024000380240000047429C
:1012F000800E4742007000400000FFFF4FF0E021E9
:101300000428086903D020F004000861704740F009
:101310000400FAE7704710B5401EB0F1807F01D39A
:10132000012010BD4FF0E02460610F21601700F034
:1013300093FD0020A06107202061002010BD10B5A2
:10134000FFF7E8FF10BD7047704710B590F83820E0
:10135000012A25D0012280F83820CA688C6822F43E
:10136000407222434C6822F4806222430C6822F4CB
:10137000006222430C6922F4805222434C6922F419
:10138000005222438C6922F48042224322F400411D
:10139000026800232143516480F83830002010BDDA
:1013A000022010BD30B590F83820012A20D001224B
:1013B00080F83820022380F8393003685C6824F014
:1013C00070045C6003685C680D682C435C600368B3
:1013D0009C6824F080049C6003689C6849680C4306
:1013E0009C6080F83920002180F83810084630BD14
:1013F000022030BD10B5040003D094F8390010B1BC
:1014000007E0012010BD002084F83800204600F0DD
:101410000CF8022084F83900211D206800F0B4FD8A
:10142000012084F83900002010BD70470168CA68A7
:1014300042F00102CA600068016841F001010160E8
:1014400000207047704770B50446006801694FF08E
:101450000005C943890715D4C168C943890711D458
:10146000E91E0161012020762068806980072046FE
:1014700002D0FFF7E7FF04E000F0BEF8204600F0DE
:1014800053F9257620680169C943490717D4C16813
:10149000C943490713D46FF004010161022020768B
:1014A0002068806910F4407F204602D0FFF7CAFF11
:1014B00004E000F0A1F8204600F036F92576206817
:1014C0000169C943090716D4C168C943090712D481
:1014D0006FF008010161042020762068C069800750
:1014E000204602D0FFF7AEFF04E000F085F820466A
:1014F00000F01AF9257620680169C943C90617D496
:10150000C168C943C90613D46FF0100101610820F6
:1015100020762068C06910F4407F204602D0FFF793
:1015200091FF04E000F068F8204600F0FDF8257611
:1015300020680169C943C90708D1C168C943C907FF
:1015400004D1891E0161204600F0F0F8206801698D
:10155000C943090609D4C168C943090605D46FF017
:10156000800101612046FFF7EEFE20680169C94352
:10157000490609D4C168C943490605D46FF0400142
:101580000161204600F0DCF820680169C943890642
:101590000BD4C168C943890607D46FF020010161EB
:1015A0002046BDE87040FFF7CFBE70BD70B5006843
:1015B0000E4986B0884217D14FF450600090022542
:1015C0000024CDE901540126CDE9034669460848C7
:1015D000FFF7F0F9A8020090CDE90154CDE90346E8
:1015E00069460448FFF7E6F906B070BD0000014007
:1015F0000000024000100240704770B5044690F8A9
:1016000038000D4601280DD0012684F838600220EC
:1016100084F8390042B1042A18D0082A2AD00C2AAA
:101620004DD139E0022070BD206800F00DFD20682A
:10163000816941F0080181612068816921F004011C
:101640008161206881692A69114311E0206800F0F6
:1016500027FD2068816941F400618161206881690A
:1016600021F480618161206881692A6941EA02214F
:10167000816124E0206800F045FD2068C16941F0E7
:101680000801C1612068C16921F00401C1612068BD
:10169000C1692A69114311E0206800F063FD2068E8
:1016A000C16941F40061C1612068C16921F48061B0
:1016B000C1612068C1692A6941EA0221C16184F8D7
:1016C0003960002084F8380070BD10B5040003D0E4
:1016D00094F8390010B107E0012010BD002084F813
:1016E0003800204600F00CF8022084F83900211D53
:1016F000206800F049FC012084F83900002010BD6A
:1017000008B500680649884208D10648016841F0DA
:1017100001010160006800F00100009008BD0000B8
:10172000000001404438024070470000006803494F
:10173000884201D1FFF730BA704700000010004026
:101740007047704770B5026804461068D1685369E5
:1017500010F00F0F51D003F0010501F490763543DE
:101760005DD0C20705D0CA0503D5E26B42F0010285
:10177000E263420705D5DA0703D0E26B42F00202CA
:10178000E263820705D5DA0703D0E26B42F0040278
:10179000E263020705D5DA0703D0E26B42F00802E4
:1017A000E263E26B002A34D0800604D5880602D5B5
:1017B000204600F015FD20684069E16BC0F3801001
:1017C00001F008010143204624D000F0FBFC206812
:1017D000416949061AD5416921F040014161606BB8
:1017E000A0B11B490165606BFEF798FF002810D07F
:1017F000606B016DBDE87040084783060FD58B060E
:101800000DD52046BDE8704000F0EABC2046FFF749
:1018100098FF70BDFFF795FF0020E06370BD0306E1
:1018200006D50B0604D52046BDE8704000F074BE16
:101830004006F3D54806F1D5D168204621F0400195
:10184000D160202184F8391000F059F970BD0000F2
:10185000B521000870B5040004D094F839000025C3
:1018600010B106E0012070BD84F83850204600F029
:1018700023F8242084F839002068C16821F400513D
:10188000C160204600F0F2FC2068016921F490411B
:1018900001612068416921F02A0141612068C16825
:1018A00041F40051C160E563202084F8390084F8D8
:1018B0003A00002070BD00002DE9F04F0446D0F83A
:1018C00000C0DFF8F88101207D4B022703210722A9
:1018D0000025860287B04FF0006BC4453BD1D3F89A
:1018E00000C04CF0100CC3F800C01B68824603F027
:1018F0001003059380238DE888048846CDE9038290
:10190000914669466F48FFF755F870108DE88104DD
:1019100069466D48CDE90389FFF74CF86C4F6B4879
:101920003860C7E901B5C7E903567D61BD61FD6156
:101930003D6238467D62FEF7D3FF18B1A12165A054
:1019400000F029FE6763002211462520BC63FFF7E3
:10195000CDF9252062E0DFF88C814FF0400AC445C4
:1019600061D1574BA9461B1FD3F800C04CF4802C03
:10197000C3F800C01B680DF1080803F48023059329
:1019800088E807004FF44063CDE9003769465648C0
:10199000FFF710F8DFF83881544908F16008404635
:1019A000C8F80010C0E901B5C0E90356C8F81450E2
:1019B000C8F81850C8F81C50C8F820505F46C8F83E
:1019C0002450FEF78DFF18B1CE2142A000F0E3FDB8
:1019D0003F4D4648C4F83480C0353030C8F83840F0
:1019E00085E88104C5E90396C5F81490C5F81890F8
:1019F000C5F81C90C5F820902846C5F82490FEF73D
:101A00006FFF18B1E02133A000F0C5FD256300226F
:101A100011462720AC63FFF769F92720FFF75AF931
:101A200007B0BDE8F08F324A9445F9D11A6842F008
:101A300020021A601A68CDE9020102F02002059224
:101A40004FF484420820CDE90027049069462948D4
:101A5000FEF7B0FF1D48284F18384FF02068386057
:101A6000C7E90185C7E903567D61BD61FD613D623E
:101A700038467D62FEF734FF20B140F20D1115A00B
:101A800000F089FD6763BC631B4F1048603760300E
:101A9000C7E903567D61BD61FD613D627D6287E8F6
:101AA00001053846FEF71CFF20B140F21F1109A0C6
:101AB00000F071FD2763BC63B2E700000010014035
:101AC00044380240000402400000024040640240EA
:101AD000340100202E2E2F5372632F7573617274A0
:101AE0002E630000004800400008024028600240C9
:101AF0000014014000180240540200207047704753
:101B0000FEE70000104810B50E4901600521416054
:101B100000214FF400328160C0E90312520142619A
:101B20000176012242768176C17601774177FEF710
:101B300025FD002805D0BDE81040452103A000F098
:101B40002ABD10BD00640040100000202E2E2F532F
:101B500072632F63616E2E63000000001D4808B59C
:101B6000016841F400110160016801F40011009165
:101B7000016841F4800101600068002200F48000E7
:101B8000009011460C20FFF7B1F80C20FFF7A2F8E7
:101B9000002211460E20FFF7A9F80E20FFF79AF851
:101BA000002211463920FFF7A1F83920FFF792F8FB
:101BB000002211463A20FFF799F83A20FFF78AF8F9
:101BC000002211464520FFF791F8BDE80840452066
:101BD000FFF780B83038024030B5264887B001683A
:101BE00041F002010160016801F002010591016804
:101BF00041F040010160016801F040010591016878
:101C000041F001010160016801F0010105910168E5
:101C100041F004010160016801F0040105910168CF
:101C200041F080010160016801F0800105910168C7
:101C300041F010010160016801F010010591016897
:101C400041F02001016000680B4D00F020004FF4CE
:101C500080440590002221462846FEF791FF01218D
:101C6000CDE900410291039169462846FEF7A2FEA4
:101C700007B030BD303802400014024010B535487E
:101C800090B033490160B3210024C0E9011440F64B
:101C9000C311C0E903144461FFF717FD18B14021D7
:101CA0002DA000F078FC0E940EA92A480F94FFF79F
:101CB00079FB18B1472128A000F06DFC602000904E
:101CC0004FF47A70CDE90104039404940594002242
:101CD000694620480694FFF790FC18B153211EA0D6
:101CE00000F059FC042269461A48FFF786FC18B137
:101CF000582119A000F04FFC082269461548FFF74B
:101D00007CFC18B15D2114A000F045FC0C22694652
:101D10001048FFF772FC18B162210FA000F03BFCE5
:101D20000794089409944FF400500A94CDE90B40AD
:101D300007A908480D94FFF708FB18B16E2106A00B
:101D400000F029FC0348FFF731FC10B010BD000083
:101D500000000140380000202E2E2F5372632F7494
:101D6000696D2E63000000000E4810B50C4901603B
:101D70000D49416000214FF480628160C0E9031287
:101D80000C22C0E90521C161FFF764FD002805D0E0
:101D9000BDE810404A2105A000F0FDBB10BD0000C9
:101DA0000010014074000020A08601002E2E2F5349
:101DB00072632F75736172742E6300000D4810B545
:101DC0000B4901604FF4E1314160002181600C2238
:101DD000C160C0E904128161C161FFF73BFD0028C9
:101DE00005D0BDE810405D2103A000F0D4BB10BDBC
:101DF00000480040B40000202E2E2F5372632F7530
:101E0000736172742E6300000D4810B50B490160B8
:101E10004FF461214160002181600C22C160C0E962
:101E200004128161C161FFF715FD002805D0BDE8EE
:101E30001040702103A000F0AEBB10BD00140140A3
:101E4000F40000202E2E2F5372632F75736172746D
:101E50002E630000FEE770470907090E002806DA26
:101E600000F00F0000F1E02080F8141D704700F131
:101E7000E02080F80014704770477047FFF75FBAA2
:101E800030B5274893B00025016841F080510160CA
:101E9000006800F0805011902248016841F44041F0
:101EA00001600068022400F440401190012000907D
:101EB000000401908001CDE9064006200890B4207E
:101EC000CDE9090404200B906846FFF789F800B1BA
:101ED000FEE7FEF73DFF00B1FEE70CA90F2081E809
:101EE00031004FF4A0500F904FF480501090052116
:101EF0000CA8FEF765FF00B1FEE7FFF719F84FF4F5
:101F00007A71B0FBF1F0FFF706FA0420FFF7F6F95B
:101F100000221146501EFEF7E9FE13B030BD00004E
:101F200040380240007000401048016841F47001E0
:101F300001600F48016841F0010101600C4A002175
:101F40000832116002680B4B1A400260031D0A4AF6
:101F50001A60026822F48022026005480C30016099
:101F600002495806803908607047000088ED00E09B
:101F700000380240FFFFF6FE103000240148FFF752
:101F800062BA000014030020F0B50268234B244D10
:101F9000244E254F254C4FF0804C984209D0604587
:101FA00007D0A84205D0B04203D0B84201D0A04229
:101FB00004D122F0700E4A6842EA0E0298421BD009
:101FC000604519D0A84217D0B04215D0B84213D0FE
:101FD000A04211D0164DA8420ED0164DA8420BD0EB
:101FE000154DA84208D0154DA84205D0144DA84261
:101FF00002D0144DA84203D122F44075CA682A4386
:1020000002608A68C2620A688262984201D0A04275
:1020100001D10969016301214161F0BD0000014066
:102020000004004000080040000C00400004014093
:1020300000400140004401400048014000180040B9
:10204000001C00400020004030B5026A22F001026E
:102050000262026A436884690D6824F073042543B0
:1020600022F002048A6822430B4CA04202D00B4C9F
:10207000A0420BD122F00804CA6823F44073224323
:102080004C6922F004021C438B6923434360856141
:1020900049684163026230BD000001400004014014
:1020A00030B5026A22F010020262026A4368846953
:1020B0000D6824F4E64444EA05248D6822F02002E9
:1020C00042EA05120D4DA84202D00D4DA8420ED194
:1020D000CD6822F0800242EA05124D6923F4406384
:1020E00043EA85038D6922F0400243EA8503436099
:1020F000846149688163026230BD000000000140D4
:102100000004014030B5026A22F480720262036A60
:102110004268C46923F4007324F073050C682C43EF
:102120008D6843EA05230D4DA84202D00C4DA8420C
:102130000ED1CD6823F4006343EA05234D6922F4F0
:10214000405242EA05128D6923F4806342EA051287
:102150004260C4614968C163036230BD0000014050
:102160000004014030B5026A22F480520262046A1F
:102170004268C3690D6823F4E64343EA05238D688A
:1021800024F4005444EA0534084DA84202D0084D16
:10219000A84204D14D6922F4804242EA851242608D
:1021A000C36149680164046230BD00000000014061
:1021B0000004014010B5806B0021C185C184FFF788
:1021C000C0FA10BD0168CA6822F49072CA60016842
:1021D0004A6922F001024A61202180F83A107047D2
:1021E00010B590F83A10222901D0022010BD816864
:1021F000B1F5805F11D00169002901681FD04968DD
:1022000001F07F03816A4A1C82620B70C18D491EF6
:102210000904090CC18518D026E00269816A002AE8
:102220000268526805D0D2B20A80816A491C816274
:10223000ECE7C2F308020A80816A891CF7E74A6862
:10224000816A4B1C83620A70E0E70168CA6822F465
:102250009072CA6001684A6922F001024A61202135
:1022600080F83A10FFF74AFC002010BD2DE9F0413C
:1022700004460068016921F44052E168114301619C
:102280002168C86849F20C6290432369A268E56935
:102290001A4363692B431A430243CA6021684869A1
:1022A00020F44072A06910434861E1696425B1F5EA
:1022B000004F9748974A21684FF032083FD091422B
:1022C00001D081427CD1FEF749FE00EBC00101EB59
:1022D000001061688900B0FBF1F6FEF73FFE00EBED
:1022E000C00101EB001061688900B0FBF1F0B0FBA8
:1022F000F5F06FF01801484306EB800108EB011080
:10230000B0FBF5F000F0F006FEF728FE00EBC00190
:1023100001EB001061688900B0FBF1F0B0FBF5F053
:1023200006EB0016FEF71AFE00EBC00101EB0010F1
:1023300061688900B0FBF1F7FEF710FED2E0914230
:1023400001D081423DD1FEF709FE00EBC00101EB57
:10235000001061684900B0FBF1F0B0FBF5F0060138
:10236000FEF7FCFD00EBC00101EB001061684900C5
:10237000B0FBF1F7FEF7F2FD00EBC00101EB00103E
:1023800061684900B0FBF1F0B0FBF5F06FF01801A7
:10239000484307EB800108EBC100B0FBF5F000F00B
:1023A000F80006EB4006FEF7D9FD00EBC00101EB9B
:1023B000001061684900B0FBF1F7FEF7CFFD3CE08B
:1023C00055E0FEF7BBFD00EBC00101EB00106168BA
:1023D0004900B0FBF1F0B0FBF5F00601FEF7AEFDF1
:1023E00000EBC00101EB001061684900B0FBF1F7A0
:1023F000FEF7A4FD00EBC00101EB0010616849008D
:10240000B0FBF1F0B0FBF5F06FF01801484307EBBB
:10241000800108EBC100B0FBF5F000F0F80006EB1E
:102420004006FEF78BFD00EBC00101EB0010616878
:102430004900B0FBF1F7FEF781FD00EBC00101EBB5
:10244000001061684900B0FBF1F0B0FBF5F06FF0EF
:102450001801484307EB800108EBC100B0FBF5F021
:1024600000F00700216830448860BDE8F081FEF785
:1024700065FD00EBC00101EB001061688900B0FB55
:10248000F1F6FEF75BFD00EBC00101EB00106168A7
:102490008900B0FBF1F0B0FBF5F06FF01801484394
:1024A00006EB800108EB0110B0FBF5F000F0F00640
:1024B000FEF744FD00EBC00101EB001061688900EC
:1024C000B0FBF1F0B0FBF5F006EB0016FEF736FDC1
:1024D00000EBC00101EB001061688900B0FBF1F76F
:1024E000FEF72CFD00EBC00101EB001061688900D4
:1024F000B0FBF1F0B0FBF5F06FF01801484307EBCB
:10250000800108EB0110B0FBF5F000F00F00A9E727
:10251000001401400010014090F83910212901D029
:10252000022070478168B1F5805F016A0BD04A1CB8
:102530000262026809785160C18C491E0904090CC5
:10254000C1840ED017E009880268C1F30801516008
:1025500001690029016A02D0491C0162ECE7891C6B
:10256000FBE70168CA6822F08002CA600068C1689F
:1025700041F04001C1600020704700000148FFF7B2
:10258000E1B80000740000200148FFF7DBB800004C
:10259000B4000020FEE7FEE702E008C8121F08C1F1
:1025A000002AFAD170477047002001E001C1121FD4
:1025B000002AFBD17047FEF7F7FAFFF761FCFFF73F
:1025C0000BFBFFF7CBFAFFF79DFAFFF7CDFBFFF709
:1025D000F5FBFFF719FCFFF751FBFEE700061016AD
:1025E00000061016000000000000000001020304B5
:1025F0000607080900000000010203041C26000869
:102600000000002010000000982500082C2600087B
:102610001000002040070000A8250008010000006D
:0C26200010000000000000000024F40086
:04000005080001AD41
:00000001FF
